:1000000000000420B5010000F5010000F50100002A
:10001000F5010000F5010000F5010000F501000008
:1000200000000000000000000000000001210000AE
:10003000F501000000000000D1220000192300009B
:10004000F5010000F5010000F5010000F5010000D8
:10005000F5010000F5010000F5010000F5010000C8
:10006000F5010000F5010000F5010000F5010000B8
:10007000F5010000F5010000F5010000F5010000A8
:10008000F5010000F5010000F5010000F501000098
:10009000F5010000F5010000F5010000F501000088
:1000A000F5010000F5010000F5010000F501000078
:1000B000F5010000F5010000F5010000F501000068
:1000C000F5010000F5010000F5010000F501000058
:1000D000F5010000F5010000F5010000F501000048
:1000E000F5010000F5010000F5010000F501000038
:1000F000F5010000F5010000F5010000F501000028
:1001000010B5054C237833B9044B13B10448AFF351
:1001100000800123237010BD48040220000000006D
:100120005C33000008B5034B1BB103490348AFF330
:10013000008008BD000000004C0402205C33000079
:10014000154B002B08BF134B9D46A3F5803A0021A9
:100150008B460F461348144A121A02F007FF0F4B42
:10016000002B00D098470E4B002B00D09847002062
:10017000002104000D000D48002802D00C4802F0B8
:10018000BDFF02F027FE2000290000F06FF802F00A
:1001900011FE00BF00000800000004200000000065
:1001A00000000000480402202C540220FD30000012
:1001B000093100000A490B4A0B4B9A42BEBF51F865
:1001C000040B42F8040BF8E70849094A0020914261
:1001D000BCBF41F8040BFAE700F00EF8FFF7B0FFE0
:1001E0006833000000000220480402204804022076
:1001F0002C540220FEE7FEE780B400AF034B044A14
:100200001A6000BFBD4680BC704700BF00000220DE
:100210000048E80180B400AF114B5B68104A43F01E
:10022000010353600F4B0722C3F888200D4BDB6896
:100230000C4A43F08003D3600A4B0622C3F8C02067
:10024000084B11221A60074B00225A60054B03220B
:10025000DA60054B0222DA6300BFBD4680BC7047FE
:100260000009025000000250000A025080B582B01E
:1002700002AF344B1B68334A43F0010313604FF065
:10028000A0431B684FF0A04223F0070313604FF018
:10029000A0431B684FF0A04223F0300313604FF0DF
:1002A000A0431B6A4FF0A04223F00803136200BF73
:1002B0004FF0A0439B6A03F40063002BF8D04FF08B
:1002C000A0431B6A4FF0A04223F00103136200BF5A
:1002D0004FF0A0439B6A03F00803002BF8D04FF0C7
:1002E000A0435B694FF0A04223F003035361164B18
:1002F0001B68154A43F00803136000BF4FF0A0438A
:100300005B6903F48043002BF8D0FFF783FF01F013
:10031000B3FC00F0CFFD0D4B0193022300930023AB
:1003200082220B490B4802F0F4F80B4B0193022395
:100330000093002382220949094802F0EAF802F0FA
:100340004BFAFEE7001000E00003045064040220B2
:1003500020320000B5030000680402202C320000A7
:100360000104000080B483B000AF786016E000BFE5
:100370000F4B5B6903F02003002BF9D07B6893F9E6
:1003800000300B4ADBB2136000BF094B5B6903F01E
:100390004003002BF9D07B6801337B607B6893F9C5
:1003A0000030002BE3D100BF0C37BD4680BC704746
:1003B0000000025080B582B000AF78600C4B1B7813
:1003C000012BFBD10A4B00221A700A48FFF7CAFF23
:1003D000074B01221A70084801F074FA074B4FF0DE
:1003E00080521A60BFF34F8FBFF36F8FE6E700BFF5
:1003F00004000220383200005432000004ED00E016
:1004000080B582B000AF78600C4B1B78012BFBD11C
:100410000A4B00221A700A48FFF7A4FF094801F0AE
:1004200051FA064B01221A70074B4FF080521A60A6
:10043000BFF34F8FBFF36F8FE6E700BF04000220CA
:10044000643200008432000004ED00E080B483B028
:1004500000AF214B7B607B6803221A617B6803221B
:100460005A617B681D4A9A617B681D4ADA617B6824
:100470004FF480621A627B6800229A627B680022D5
:100480005A627B680022DA627B68144A1A667B68CB
:10049000144A5A667B6810229A667B6800221A67A3
:1004A0007B680022DA667B6800225A677B68073324
:1004B0000D4A106818607B680C4A106818609188B3
:1004C000927999809A717B6820229A7100BF0C37CB
:1004D000BD4680BC704700BF6053022094320000CC
:1004E0006C0402206C080220A0320000A43200003C
:1004F00080B58AB000AFF860B9607A603C4B93F980
:100500000030002B01D1FFF7A1FFFA6813465B0012
:100510001344DB006033364A1344BB61BB68FB61A4
:10052000BB691B693B62BB69DB687B6100237B6243
:100530003A6A7B699A422AD9BB699A683B6AD31A9C
:100540003B613A697B68934228BF13463B61BB69B4
:100550005A683B6A13443A691946F86902F090FCFC
:100560007A6A3B6913447B62FA693B691344FB6115
:100570007A683B69D31A7B603A6A3B6913443B62F1
:10058000BB699B683A6A9A4201D100233B627A694F
:100590003B6AD31A3B613A697B68934228BF134692
:1005A0003B613B69002B18D0BB695A683B6A134416
:1005B0003A691946F86902F063FC7A6A3B691344A8
:1005C0007B62FA693B691344FB617A683B69D31A21
:1005D0007B603A6A3B6913443B627B6A002B02D022
:1005E000BB693A6A1A617B6A18462837BD4680BDE6
:1005F0006053022080B58AB000AFF860B9607A60BD
:10060000BB687B62FB685A1C13465B001344DB002B
:100610003F4A13443B623B6A1B69FB613B6ADB68F0
:10062000BB61FA69BB699A4254D83B6A9A68BB6954
:10063000D31A013B7B617A697B689A420FD33B6A8C
:100640005A68BB6913447A68796A184602F018FC44
:10065000BA697B681A443B6ADA60012354E07A691C
:10066000FB6913447B617A697B689A424BD33B6A8E
:100670009A68BB69D31A3B613A697B689A420ED982
:100680003B6A5A68BB6913447A68796A184602F073
:10069000F7FBBA697B681A443B6ADA6018E03B6A88
:1006A0005A68BB6913443A69796A184602F0E8FB54
:1006B0003B6A58687A6A3B69D1187A683B69D31AF1
:1006C0001A4602F0DDFB7A683B69D21A3B6ADA60AF
:1006D000012319E0FA69BB69D31A013B7B617A698E
:1006E0007B689A420FD33B6A5A68BB6913447A68A5
:1006F000796A184602F0C4FBBA697B681A443B6AFF
:10070000DA60012300E0002318462837BD4680BD8B
:100710006053022080B586B000AFF860B9607A609F
:100720003B60314B93F90030002B01D1FFF78EFE77
:100730002D4B1B691A46FB6893424CD2EFF3118391
:100740004FF0200181F311883B61FB68002B32D010
:100750002549FB685A1C13465B001344DB000B441D
:10076000BA681A602049FB685A1C13465B001344A0
:10077000DB000B4404337A681A601B49FA6813469D
:100780005B001344DB000B4420333A681A601649BF
:10079000FA6813465B001344DB000B442833002245
:1007A0001A601149FA6813465B001344DB000B44DE
:1007B000243300221A600C49FA6813465B00134484
:1007C000DB000B442C333A6A1A603B6983F31188CF
:1007D00000237B6102E04FF0FF337B617B691846A9
:1007E0001837BD4680BD00BF6053022080B586B07B
:1007F00000AFF860B9607A603B60304B93F900302D
:10080000002B01D1FFF722FE2C4B5B691A46FB68D7
:1008100093424BD2EFF311834FF0200181F3118803
:100820003B61FB68002B31D02449FA6813465B001A
:100830001344DB000B446033BA681A601F49FA683E
:1008400013465B001344DB000B4464337A681A6080
:100850001A49FA6813465B001344DB000B44683303
:100860003A681A601549FA6813465B001344DB00C6
:100870000B44703300221A601049FA6813465B007B
:100880001344DB000B446C3300221A600B49FA68F6
:1008900013465B001344DB000B4474333A6A1A605E
:1008A0003B6983F3118800237B6102E04FF0FF3343
:1008B0007B617B6918461837BD4680BD60530220B6
:1008C00080B487B000AFF860B9607A6000233B6104
:1008D00002E03B6901333B61BA683B69134493F919
:1008E0000030002BF5D13A697B689A4201D97B68C8
:1008F0003B613B69FE2B06D8FB685A1CFA603A69DB
:10090000D2B21A7011E0FB685A1CFA60FF221A700A
:10091000FB685A1CFA603A69D2B21A703B69190A2C
:10092000FB685A1CFA60CAB21A7000237B610CE0A3
:10093000BB685A1CBA6093F90010FB685A1CFA6035
:10094000CAB21A707B6901337B617A693B699A424A
:10095000EED3FB6818461C37BD4680BC704780B498
:1009600083B000AF78607B68043318460C37BD460F
:1009700080BC704780B582B000AFFB1C01221946D5
:100980000120FFF7B5FD03467B607B68002B44DD4B
:10099000FB78042B1AD0042B06DC022B10D0022B80
:1009A00011DC012B09D02DE0062B15D0062B10DB16
:1009B000072B14D0802B15D024E000F07BFA31E017
:1009C00000F034FB2EE000F00FFD2BE000F0D4FC33
:1009D00028E000F051FB25E000F036FF22E000F0B7
:1009E00015FF1FE0FB1C012219460120FFF780FDC7
:1009F00003467B607B68002B11DDFB78184600F016
:100A000085FE0CE0FB785BB2002B0ADAFB1C0122AE
:100A100019460120FFF76CFD03E000BF02E000BFB4
:100A200000E000BF00BF0837BD4680BD80B58CB078
:100A300000AF01233B713B1D0133FB61FB69FB628E
:100A4000304B5B69BB620BE0BB6ADAB2FB6A591CD4
:100A5000F96262F07F02D2B21A70BB6ADB09BB6234
:100A6000BB6A7F2BF0D8FB6A5A1CFA62BA6AD2B210
:100A70001A70FB6AFB61244B1B68BB61214BDB686E
:100A8000BA69D31A7B61FB697B627B693B620BE0CD
:100A90003B6ADAB27B6A591C796262F07F02D2B299
:100AA0001A703B6ADB093B623B6A7F2BF0D87B6A9A
:100AB0005A1C7A623A6AD2B21A707B6AFB61FA698E
:100AC0003B1DD31A1A463B1D19460120FFF792FD24
:100AD00003463B613B69002B09D00A4ABB69D360DE
:100AE000084B1B78013BDAB2064B1A7004E0054B49
:100AF0005B690133034A53613B6918463037BD4691
:100B000080BD00BF84280220041000E080B58AB0B8
:100B100000AFF860B9607A60634B1B78012B10D08E
:100B2000614B1B78002B00F0A1805F4B1B78022BE0
:100B300009D1FFF77BFF5C4B1B78012B40F09880BD
:100B400001E000BF00E000BF7B681F2B09D8564BB7
:100B5000DA697B6822FA03F303F00103002B40F00B
:100B600089807B68172B07D8FB68013BFB607B689B
:100B7000DAB2FB681A703DE0BA68FB68D31AFB6111
:100B8000FB697F2B12D9FB69DA09FB68013BFB602B
:100B9000D2B2FB681A70FB69DBB2FA68013AFA60FC
:100BA00063F07F03DAB2FB681A7006E0FB68013B72
:100BB000FB60FB69DAB2FB681A707B687F2B12D985
:100BC0007B68DA09FB68013BFB60D2B2FB681A70F4
:100BD0007B68DBB2FA68013AFA6063F07F03DAB24D
:100BE000FB681A7006E0FB68013BFB607B68DAB2C9
:100BF000FB681A702D4B1B68BB612B4BDB68BA6915
:100C0000D31A7B61BB687B627B693B620BE03B6A0A
:100C1000DAB27B6A591C796262F07F02D2B21A7032
:100C20003B6ADB093B623B6A7F2BF0D87B6A5A1C2C
:100C30007A623A6AD2B21A707B6ABB60BA68FB68A1
:100C4000D31A1A46F9680120FFF7D4FC03463B612A
:100C50003B69002B03D0144ABB69D3600BE0124BF5
:100C60001B780133DAB2104B1A7004E000BF02E0C7
:100C700000BF00E000BF0E4BD3F884200C4BD3F82C
:100C800088309A420BD0084B9B78002B07D1064B3B
:100C900001229A70FFF76EFE034B00229A7000BF8C
:100CA0002837BD4680BD00BF84280220041000E024
:100CB0006053022080B586B002AFF860B9607A60F8
:100CC0003B60002300934FF40053144A1449012061
:100CD000FFF720FD002300930823124A104901204A
:100CE000FFF784FD104B4FF080521A610F4B1B68C9
:100CF0000D4AD3600C4A7B6813620B4AFB68536051
:100D0000094ABB689360084A3B685362064B00225D
:100D10001A7000BF1037BD4680BD00BF7C0802209E
:100D2000B83200007C28022084280220041000E051
:100D300080B483B000AF7860034A7B68136100BF62
:100D40000C37BD4680BC70478428022080B584B033
:100D500000AF7860EFF311834FF0200181F3118829
:100D6000FB600848FFF7FBFDB8607A68B968B868AF
:100D7000FFF7CCFEFB6883F3118800BF1037BD4638
:100D800080BD00BFB428022080B588B000AF786075
:100D90003960EFF311834FF0200181F311887B61FB
:100DA0001648FFF7DCFD38613B69FB60FB68FB61BF
:100DB0003B68BB610BE0BB69DAB2FB69591CF961A6
:100DC00062F07F02D2B21A70BB69DB09BB61BB69FA
:100DD0007F2BF0D8FB695A1CFA61BA69D2B21A703B
:100DE000FB69FB607A68F9683869FFF78FFE7B69F9
:100DF00083F3118800BF2037BD4680BDB428022090
:100E000080B58CB000AFF860B9607A60EFF3118301
:100E10004FF0200181F31188FB612548FFF79FFD0A
:100E2000B861BB697B617B69FB62BB68BB620BE03D
:100E3000BB6ADAB2FB6A591CF96262F07F02D2B275
:100E40001A70BB6ADB09BB62BB6A7F2BF0D8FB6AF6
:100E50005A1CFA62BA6AD2B21A70FB6A7B617B6969
:100E60007B627B683B620BE03B6ADAB27B6A591CAF
:100E7000796262F07F02D2B21A703B6ADB093B6290
:100E80003B6A7F2BF0D87B6A5A1C7A623A6AD2B2EC
:100E90001A707B6A7B61FA687969B869FFF736FE78
:100EA000FB6983F3118800BF3037BD4680BD00BFAA
:100EB000B428022080B58CB000AF594B1B78002BB2
:100EC00040F0AA80564B01221A70EFF311834FF0C5
:100ED000200181F31188FB600A2252490120FFF7AB
:100EE00089FBFB6883F311880A20FFF72FFFEFF3DC
:100EF00011834FF0200181F31188BB604A48FFF74E
:100F00002EFD78607B683B603B68FB62444B5B680E
:100F1000BB620BE0BB6ADAB2FB6A591CF96262F091
:100F20007F02D2B21A70BB6ADB09BB62BB6A7F2B3D
:100F3000F0D8FB6A5A1CFA62BA6AD2B21A70FB6A1B
:100F40003B603B687B62364B9B683B620BE03B6AD5
:100F5000DAB27B6A591C796262F07F02D2B21A70EF
:100F60003B6ADB093B623B6A7F2BF0D87B6A5A1CE9
:100F70007A623A6AD2B21A707B6A3B603B68FB6164
:100F8000274B1B69BB610BE0BB69DAB2FB69591CDB
:100F9000F96162F07F02D2B21A70BB69DB09BB61F2
:100FA000BB697F2BF0D8FB695A1CFA61BA69D2B2CF
:100FB0001A70FB693B603B687B6102233B610BE07D
:100FC0003B69DAB27B69591C796162F07F02D2B267
:100FD0001A703B69DB093B613B697F2BF0D87B6969
:100FE0005A1C7A613A69D2B21A707B693B60182246
:100FF00039687868FFF78AFDBB6883F31188084B6E
:101000005B6A002B02D0064B5B6A984700F0ECF954
:1010100000F0B2F900F018FC00BF3037BD4680BDCB
:1010200084280220AC320000B428022080B582B0AF
:1010300000AFEFF311834FF0200181F311887B6043
:101040000B48FFF78CFC38600A4B1B78002B07D04D
:101050000B2239683868FFF759FD064B00221A70D9
:101060007B6883F3118800BF0837BD4680BD00BF91
:10107000B42802208428022080B58CB000AFEFF3A2
:1010800011834FF0200181F31188FB604548FFF781
:1010900066FCB860BB687B607B68FB62424B5B6848
:1010A000BB620BE0BB6ADAB2FB6A591CF96262F000
:1010B0007F02D2B21A70BB6ADB09BB62BB6A7F2BAC
:1010C000F0D8FB6A5A1CFA62BA6AD2B21A70FB6A8A
:1010D0007B607B687B62344B9B683B620BE03B6AC6
:1010E000DAB27B6A591C796262F07F02D2B21A705E
:1010F0003B6ADB093B623B6A7F2BF0D87B6A5A1C58
:101100007A623A6AD2B21A707B6A7B607B68FB6152
:10111000254B1B69BB610BE0BB69DAB2FB69591C4B
:10112000F96162F07F02D2B21A70BB69DB09BB6160
:10113000BB697F2BF0D8FB695A1CFA61BA69D2B23D
:101140001A70FB697B607B687B6102233B610BE06B
:101150003B69DAB27B69591C796162F07F02D2B2D5
:101160001A703B69DB093B613B697F2BF0D87B69D7
:101170005A1C7A613A69D2B21A707B697B60182274
:101180007968B868FFF7C2FCFB6883F31188064BE7
:101190005B6A002B02D0044B5B6A984700BF303774
:1011A000BD4680BDB42802208428022080B592B0BC
:1011B00000AF7860EFF311834FF0200181F31188C5
:1011C0007B616B48FFF7CBFB38613B69FB60FB68D9
:1011D0007B647B681A68674B1B69D31A9B083B6466
:1011E0000BE03B6CDAB27B6C591C796462F07F02D5
:1011F000D2B21A703B6CDB093B643B6C7F2BF0D89E
:101200007B6C5A1C7A643A6CD2B21A707B6CFB60AD
:10121000FB68FB637B689B68BB630BE0BB6BDAB26C
:10122000FB6B591CF96362F07F02D2B21A70BB6B80
:10123000DB09BB63BB6B7F2BF0D8FB6B5A1CFA63DB
:10124000BA6BD2B21A70FB6BFB607B685B682022C2
:101250001946F868FFF734FBF8600922F968386925
:10126000FFF754FC3B69FB60FB687B637B681A6893
:10127000404B1B69D31A9B083B630BE03B6BDAB214
:101280007B6B591C796362F07F02D2B21A703B6BA0
:10129000DB093B633B6B7F2BF0D87B6B5A1C7A637B
:1012A0003A6BD2B21A707B6BFB60FB68FB627B68A7
:1012B000DB68BB620BE0BB6ADAB2FB6A591CF962FD
:1012C00062F07F02D2B21A70BB6ADB09BB62BB6AF2
:1012D0007F2BF0D8FB6A5A1CFA62BA6AD2B21A7033
:1012E000FB6AFB60FB687B627B681B693B620BE00F
:1012F0003B6ADAB27B6A591C796262F07F02D2B231
:101300001A703B6ADB093B623B6A7F2BF0D87B6A31
:101310005A1C7A623A6AD2B21A707B6AFB60FB6826
:10132000FB610023BB610BE0BB69DAB2FB69591CAE
:10133000F96162F07F02D2B21A70BB69DB09BB614E
:10134000BB697F2BF0D8FB695A1CFA61BA69D2B22B
:101350001A70FB69FB601522F9683869FFF7D6FB44
:101360007B6983F3118800BF4837BD4680BD00BF4D
:10137000B42802208428022080B500AF074B1B6AE6
:10138000002B08D0054B1B6A5B68002B03D0034B76
:101390001B6A5B68984700BF80BD00BF842802209D
:1013A00080B586B000AF7860EFF311834FF0200175
:1013B00081F311887B610B48FFF7D1FA38618022F5
:1013C00079683869FFF77CFAF8600E22F9683869A5
:1013D000FFF79CFB7B6983F3118800BF1837BD467C
:1013E00080BD00BFB428022090B583B000AF144B7D
:1013F0001B6A002B19D0124B1B6A1B68002B14D0E0
:101400000F4B1B6A1B689847C7E900013868D7E98A
:1014100000124FF000034FF00004130000241A469E
:1014200001460D20FFF7ECFC05E0064B1B68194652
:101430000C20FFF7A9FC00BF0C37BD4690BD00BFD4
:1014400084280220041000E080B586B000AFEFF3DE
:1014500011834FF0200181F31188FB601948FFF7D9
:101460007EFAB860BB687B60174B1B68C3F3080348
:101470003B607B687B613B683B610BE03B69DAB2B8
:101480007B69591C796162F07F02D2B21A703B69A4
:10149000DB093B613B697F2BF0D87B695A1C7A6181
:1014A0003A69D2B21A707B697B6002227968B868A7
:1014B000FFF72CFBFB6883F3118800BF1837BD468C
:1014C00080BD00BFB428022004ED00E080B582B0EA
:1014D00000AFEFF311834FF0200181F311887B609F
:1014E0000748FFF73CFA3860032239683868FFF78D
:1014F0000DFB7B6883F3118800BF0837BD4680BDB4
:10150000B428022080B582B000AFEFF311834FF012
:10151000200181F311887B600748FFF720FA3860CB
:10152000122239683868FFF7F1FA7B6883F3118873
:1015300000BF0837BD4680BDB428022080B582B008
:1015400000AFEFF311834FF0200181F311887B602E
:101550000748FFF704FA3860112239683868FFF746
:10156000D5FA7B6883F3118800BF0837BD4680BD7C
:10157000B428022080B588B000AF7860EFF3118303
:101580004FF0200181F311887B611A48FFF7E7F9DA
:1015900038613B69FB60184B1B697A68D31A9B085A
:1015A0007B60FB68FB617B68BB610BE0BB69DAB207
:1015B000FB69591CF96162F07F02D2B21A70BB69F3
:1015C000DB09BB61BB697F2BF0D8FB695A1CFA6150
:1015D000BA69D2B21A70FB69FB600822F9683869EF
:1015E000FFF794FA7B6983F3118800BF2037BD466B
:1015F00080BD00BFB42802208428022080B588B0B6
:1016000000AF7860EFF311834FF0200181F3118870
:101610007B611A48FFF7A3F938613B69FB60184BFF
:101620001B697A68D31A9B087B60FB68FB617B6847
:10163000BB610BE0BB69DAB2FB69591CF96162F06E
:101640007F02D2B21A70BB69DB09BB61BB697F2B19
:10165000F0D8FB695A1CFA61BA69D2B21A70FB69F8
:10166000FB600422F9683869FFF750FA7B6983F35D
:10167000118800BF2037BD4680BD00BFB4280220BE
:101680008428022080B588B000AF7860EFF3118322
:101690004FF0200181F311887B611A48FFF75FF951
:1016A00038613B69FB60184B1B697A68D31A9B0849
:1016B0007B60FB68FB617B68BB610BE0BB69DAB2F6
:1016C000FB69591CF96162F07F02D2B21A70BB69E2
:1016D000DB09BB61BB697F2BF0D8FB695A1CFA613F
:1016E000BA69D2B21A70FB69FB600622F9683869E0
:1016F000FFF70CFA7B6983F3118800BF2037BD46E2
:1017000080BD00BFB42802208428022080B58CB0A0
:1017100000AF0346FB713B4B1B68002B6DD0394B70
:101720001B68FB620023BB6208E0FB6A1B69FB626B
:10173000FB6A002B07D0BB6A0133BB62FB79BA6A34
:101740009A42F2D300E000BFFB6A002B55D0EFF3C2
:1017500011834FF0200181F311887B612A48FFF744
:10176000FEF838613B69FB60FB687B62FB793B629A
:101770000BE03B6ADAB27B6A591C796262F07F0245
:10178000D2B21A703B6ADB093B623B6A7F2BF0D80E
:101790007B6A5A1C7A623A6AD2B21A707B6AFB6020
:1017A000FB68FB61FB6A9B68BB610BE0BB69DAB25B
:1017B000FB69591CF96162F07F02D2B21A70BB69F1
:1017C000DB09BB61BB697F2BF0D8FB695A1CFA614E
:1017D000BA69D2B21A70FB69FB60FB6A1B6880228F
:1017E0001946F868FFF76CF8F8601622F96838694E
:1017F000FFF78CF97B6983F3118800BF3037BD4652
:1018000080BD00BFAC280220B428022080B582B081
:1018100000AF0C4B1B68002B0FD00A4B1B687B6082
:101820007B68DB68002B02D07B68DB6898477B68AD
:101830001B697B607B68002BF2D100BF0837BD4677
:1018400080BD00BFAC28022080B586B000AFEFF3AA
:1018500011834FF0200181F31188FB601748FFF7D7
:101860007EF8B860BB687B607B687B61144B1B783B
:101870003B610BE03B69DAB27B69591C796162F02C
:101880007F02D2B21A703B69DB093B613B697F2B57
:10189000F0D87B695A1C7A613A69D2B21A707B69B6
:1018A0007B601B227968B868FFF730F9FB6883F327
:1018B000118800BF1837BD4680BD00BFB428022084
:1018C000B028022080B58AB000AF7860EFF31183B2
:1018D0004FF0200181F311887B612748FFF73FF823
:1018E0003861802279683869FEF7EAFFF860FB68A2
:1018F0007B6200233B620BE03B6ADAB27B6A591CD5
:10190000796262F07F02D2B21A703B6ADB093B62F5
:101910003B6A7F2BF0D87B6A5A1C7A623A6AD2B251
:101920001A707B6AFB60FB68FB610023BB610BE004
:10193000BB69DAB2FB69591CF96162F07F02D2B26D
:101940001A70BB69DB09BB61BB697F2BF0D8FB69EF
:101950005A1CFA61BA69D2B21A70FB69FB601A228A
:10196000F9683869FFF7D2F87B6983F3118800BF03
:101970002837BD4680BD00BFB428022080B58AB09C
:1019800000AF7860EFF311834FF0200181F31188ED
:101990007B612748FEF7E3FF386180227968386968
:1019A000FEF78EFFF860FB687B6201233B620BE071
:1019B0003B6ADAB27B6A591C796262F07F02D2B26A
:1019C0001A703B6ADB093B623B6A7F2BF0D87B6A6B
:1019D0005A1C7A623A6AD2B21A707B6AFB60FB6860
:1019E000FB610023BB610BE0BB69DAB2FB69591CE8
:1019F000F96162F07F02D2B21A70BB69DB09BB6188
:101A0000BB697F2BF0D8FB695A1CFA61BA69D2B264
:101A10001A70FB69FB601A22F9683869FFF776F8DB
:101A20007B6983F3118800BF2837BD4680BD00BFA6
:101A3000B4280220F0B585B002AF00237B6034E00B
:101A40001E497A6813469B0013449B000B44186898
:101A50001A497A6813469B0013449B000B440433D5
:101A60001C6816497A6813469B0013449B000B447C
:101A700008331D6811497A6813469B0013449B0084
:101A80000B440C331E680D497A6813469B001344BF
:101A90009B000B4410331B68009333462A462146B3
:101AA00000F0BAF87B6801337B60054B1B687A68ED
:101AB0009A42C5D300BF0C37BD46F0BD982902201D
:101AC000382A0220F0B583B000AF00F089FF03464A
:101AD0004FF00004C7E90034D7E900124B1842EB7D
:101AE0000204C7E90034D7E900562B4634464FF0CC
:101AF00000014FF00002620142EAD36259010B4635
:101B000014465B1B64EB06044FF000014FF000022B
:101B1000A20042EA937299000B4614465B1944EB0B
:101B200006044FF000014FF00002E20042EA537257
:101B3000D9000B461446C7E90034D7E900341846EB
:101B400021460C37BD46F0BD80B586B002AFF860C7
:101B5000B9607A603B6005222B49B86801F05EF9F4
:101B60000346002B4BD0294B1B68072B03D9284871
:101B7000FFF704FF44E0254B1A68264913469B00F3
:101B800013449B000B44FA681A60204B1A682149E1
:101B900013469B0013449B000B440433BA681A603D
:101BA0001A4B1A681B4913469B0013449B000B44B5
:101BB00008337A681A60154B1A68164913469B0059
:101BC00013449B000B440C333A681A600F4B1A689D
:101BD000104913469B0013449B000B441033BA6911
:101BE0001A600A4B1B680133084A1360BB690093F3
:101BF0003B687A68B968F86800F00EF800E000BF4A
:101C00001037BD4680BD00BFC0320000382A022018
:101C1000C83200009829022080B58AB000AFF86071
:101C2000B9607A603B6007F1140314220021184662
:101C300001F09CF9FB687B61BB68BB617B68FB6161
:101C40003B683B623B6B7B6207F114031846FFF76E
:101C5000ADFA00BF2837BD4680BD000080B500AF9B
:101C60000348FFF79DFB0348FFF79AFB00BF80BDC9
:101C7000203300004033000080B500AF064B1868E9
:101C8000054B1968054B064AFFF714F80548FFF79E
:101C90004FF800BF80BD00BF000002205D1C0000A7
:101CA000183300000000032080B58AB000AF7860D0
:101CB0000023FB6100F0E6FD574B1B68002B01D1B0
:101CC00000F00CF9554B1A687B681340002B40F06C
:101CD0008C807B68002B1CD008227B6813447B60BF
:101CE0007B6803F00703002B13D07B6823F0070306
:101CF00008337B607B6803F00703002B09D04FF0AB
:101D0000500383F31188BFF36F8FBFF34F8F7B6155
:101D1000FEE77B68002B68D0414B1B687A689A42CB
:101D200063D8404B3B623F4B1B687B6204E07B6A9D
:101D30003B627B6A1B687B627B6A5B687A689A425B
:101D400003D97B6A1B68002BF1D1334B1B687A6A7D
:101D50009A424AD03B6A1B6808221344FB617B6AA3
:101D60001A683B6A1A607B6A5A687B68D21A082331
:101D70005B009A421ED97A6A7B681344BB61BB69D7
:101D800003F00703002B09D04FF0500383F31188B1
:101D9000BFF36F8FBFF34F8F3B61FEE77B6A5A68DB
:101DA0007B68D21ABB695A607B6A7A685A60B869E4
:101DB00000F0F6F81A4B1A687B6A5B68D31A184A67
:101DC0001360174B1A68184B1B689A4203D2144BC6
:101DD0001B68154A13607B6A5A68104B1B681A43CC
:101DE0007B6A5A607B6A00221A6000F059FDFB6929
:101DF00003F00703002B09D04FF0500383F3118841
:101E0000BFF36F8FBFF34F8FFB60FEE7FB69184690
:101E10002837BD4680BD00BF4452022050520220E8
:101E2000485202203C5202204C52022080B586B01B
:101E300000AF78607B687B617B68002B46D008230D
:101E40005B427A6913447B617B693B613B695A68F9
:101E5000204B1B681340002B09D14FF0500383F334
:101E60001188BFF36F8FBFF34F8FFB60FEE73B69B5
:101E70001B68002B09D04FF0500383F31188BFF388
:101E80006F8FBFF34F8FBB60FEE73B695A68114B02
:101E90001B681340002B19D03B691B68002B15D120
:101EA0003B695A680B4B1B68DB431A403B695A601D
:101EB00000F0E8FC3B695A68074B1B681344064A6C
:101EC0001360386900F06CF800F0EAFC00BF1837C6
:101ED000BD4680BD505202204852022080B485B0D9
:101EE00000AF4FF42053BB60274BFB60FB6803F04F
:101EF0000703002B0CD0FB680733FB60FB6823F063
:101F00000703FB60BA68FB68D31A1F4A1344BB601F
:101F1000FB687B601D4A7B6813601C4B00225A6083
:101F20007B68BA681344FB600822FB689B1AFB605D
:101F3000FB6823F00703FB60FB68154A1360144B32
:101F40001B6800225A60124B1B6800221A607B68D3
:101F50003B603B68FA68D21A3B685A600C4B1A68BF
:101F60003B681A603B685B680A4A13603B685B68C1
:101F7000094A1360094B4FF000421A6000BF143742
:101F8000BD4680BC704700BF3C2A02203C52022064
:101F9000445202204C520220485202205052022049
:101FA00080B485B000AF7860274BFB6002E0FB682F
:101FB0001B68FB60FB681B687A689A42F7D8FB686D
:101FC000BB60FB685B68BA6813447A689A4208D1C0
:101FD000FB685A687B685B681A44FB685A60FB6858
:101FE0007B607B68BB607B685B68BA681A44FB688F
:101FF0001B689A4218D1FB681A68144B1B689A42F6
:102000000DD07B685A68FB681B685B681A447B6864
:102010005A60FB681B681A687B681A6008E00B4B03
:102020001A687B681A6003E0FB681A687B681A60AC
:10203000FA687B689A4202D0FB687A681A6000BF2F
:102040001437BD4680BC70473C52022044520220E7
:1020500080B485B000AFF860B9607A60FB68043B7B
:10206000FB60FB684FF080721A60FB68043BFB600A
:10207000BB6823F00102FB681A60FB68043BFB604D
:10208000084AFB681A60FB68143BFB607A68FB68CF
:102090001A60FB68203BFB60FB6818461437BD469E
:1020A00080BC7047A920000080B485B000AF002339
:1020B0007B60104B1B68B3F1FF3F09D04FF050031A
:1020C00083F31188BFF36F8FBFF34F8FFB60FEE781
:1020D0004FF0500383F31188BFF36F8FBFF34F8F1F
:1020E000BB6000BF7B68002BFCD000BF1437BD462F
:1020F00080BC7047080002200000000000000000C3
:10210000074B19680868B0E8F00F80F30988BFF33F
:102110006F8F4FF0000080F311884EF00D0E704766
:102120005C52022000BF00BF06480068006880F3D0
:10213000088862B661B6BFF34F8FBFF36F8F00DFC1
:1021400000BF00BF08ED00E080B584B000AF314BA8
:10215000FB60FB681B78DBB27B60FB68FF221A70B8
:10216000FB681B78DBB2FB70FB78DBB203F050033B
:10217000DAB2294B1A70294B07221A6009E0274B63
:102180001B68013B254A1360FB78DBB25B00DBB2C6
:10219000FB70FB78DBB203F08003802BEFD01F4B8A
:1021A0001B68C3F10703042B09D04FF0500383F3DE
:1021B0001188BFF36F8FBFF34F8FBB60FEE7174BE4
:1021C0001B681B02154A1360144B1B6803F4E06381
:1021D000124A13607B68DAB2FB681A70104B1B68F6
:1021E0000F4A43F4700313600D4B1B680C4A43F015
:1021F0007043136000F0B8F80A4B00221A60FFF732
:1022000093FF00F0BBFCFFF74FFF00231846103789
:10221000BD4680BD00E400E0545202205852022026
:1022200020ED00E00800022080B483B000AF4FF042
:10223000500383F31188BFF36F8FBFF34F8F7B6021
:102240000E4B1B6801330D4A13600C4B1B68012BAE
:102250000ED10B4B1B68DBB2002B09D04FF05003A3
:1022600083F31188BFF36F8FBFF34F8F3B60FEE79F
:1022700000BF0C37BD4680BC704700BF080002207D
:1022800004ED00E080B483B000AF104B1B68002B5E
:1022900009D14FF0500383F31188BFF36F8FBFF361
:1022A0004F8F7B60FEE7094B1B68013B074A1360B9
:1022B000064B1B68002B04D100233B603B6883F373
:1022C000118800BF0C37BD4680BC70470800022053
:1022D000EFF30980BFF36F8F0D4B1A6820E9F00F01
:1022E00010602DE908404FF0500080F3118800F095
:1022F00045FC4FF0000080F31188BDE808401968E4
:102300000868B0E8F00F80F30988BFF36F8F70475B
:102310005C52022000BF00BF80B582B000AF4FF01A
:10232000500383F31188BFF36F8FBFF34F8F7B6030
:10233000FFF78AF800F066FB0346002B06D0FFF794
:10234000E1F8084B4FF080521A6001E0FFF7BEF849
:1023500000233B603B6883F3118800BF0837BD460C
:1023600080BD00BF04ED00E080B400AF0A4B002246
:102370001A600A4B00221A60094B1B68094AA2FB2B
:1023800003235B09084A013B1360034B07221A60D1
:1023900000BFBD4680BC704710E000E018E000E0E0
:1023A00000000220D34D621014E000E080B485B03C
:1023B00000AFEFF30583FB60FB680F2B13D9154AC1
:1023C000FB6813441B78FB72134B1B78FA7A9A4212
:1023D00009D24FF0500383F31188BFF36F8FBFF31F
:1023E0004F8F7B60FEE70D4B1B6803F4E0620C4BE4
:1023F0001B689A4209D94FF0500383F31188BFF349
:102400006F8FBFF34F8F3B60FEE700BF1437BD46B1
:1024100080BC7047F0E300E0545202200CED00E075
:102420005852022080B483B000AF78607B6803F11B
:1024300008027B685A607B684FF0FF329A607B68C5
:1024400003F108027B68DA607B6803F108027B68AD
:102450001A617B6800221A6000BF0C37BD4680BC41
:10246000704780B483B000AF78607B6800221A6147
:1024700000BF0C37BD4680BC704780B485B000AF4C
:10248000786039607B685B68FB603B68FA685A601B
:10249000FB689A683B689A60FB689B683A685A6078
:1024A000FB683A689A603B687A681A617B681B68C7
:1024B0005A1C7B681A6000BF1437BD4680BC704749
:1024C00080B485B000AF78607B681B69FB607B6877
:1024D0005B687A6892689A607B689B687A685268E1
:1024E0005A60FB685B687A689A4203D17B689A6895
:1024F000FB685A607B6800221A61FB681B685A1EE1
:10250000FB681A60FB681B6818461437BD4680BC20
:10251000704780B58CB004AFF860B9603B6013467B
:10252000FB80FB889B001846FFF7BEFB78617B6948
:10253000002B0ED05820FFF7B7FBF861FB69002B8A
:1025400003D0FB697A691A6305E07869FFF76EFCCE
:1025500001E00023FB61FB69002B13D0FA88002304
:102560000393FB690293FB6A0193BB6A00933B6888
:10257000B968F86800F00EF8F86900F0A1F80123D6
:10258000BB6102E04FF0FF33BB61BB6918462037E7
:10259000BD4680BD80B588B000AFF860B9607A6094
:1025A0003B60BB68002B09D14FF0500383F31188C7
:1025B000BFF36F8FBFF34F8F7B61FEE73B6B186BF1
:1025C0007B689B001A46A52100F0D0FC3B6B1A6B80
:1025D0007B6803F18043013B9B001344BB61BB69F3
:1025E00023F00703BB61BB6903F00703002B09D08D
:1025F0004FF0500383F31188BFF36F8FBFF34F8FFA
:102600003B61FEE70023FB6114E0BA68FB691344F9
:1026100093F900103A6BFB69134434330A461A707D
:10262000BA68FB69134493F90030002B06D0FB69AC
:102630000133FB61FB69092BE7D900E000BF3B6B6D
:10264000002283F83D20BB6A042B01D90423BB621E
:102650003B6BBA6ADA623B6BBA6A9A643B6B0022E4
:10266000DA643B6B04331846FFF7FBFE3B6B183311
:102670001846FFF7F6FE3B6B3A6B1A61BB6AC3F173
:1026800005023B6B9A613B6B3A6B5A623B6B0022D3
:102690001A653B6B002283F854203A68F968B869E0
:1026A000FFF7D6FC02463B6B1A60FB6A002B02D098
:1026B000FB6A3A6B1A6000BF2037BD4680BD000040
:1026C000B0B584B002AF7860FFF7AEFD3B4B1B683E
:1026D00001333A4A13603A4B1B68002B09D1384A40
:1026E0007B681360354B1B68012B10D100F0C6FAD4
:1026F0000DE0344B1B68002B09D1314B1B68DA6AA3
:102700007B68DB6A9A4202D82D4A7B6813602E4BA5
:102710001B6801332C4A13602B4B1A687B681A64C0
:102720007B68002B16D07B681846FEF723FF78687D
:102730007B6803F134017B68DA6A7B681B6B1D469A
:102740007B681B681C467B681B6BE31A00932B4657
:10275000FFF7FAF97B681846FEF794FF7B68DB6A9F
:1027600001229A40194B1B681343184A13607B6877
:10277000DA6A13469B0013449B00154A1A447B688F
:10278000043319461046FFF778FEFFF77BFD0D4B2B
:102790001B68002B0ED00A4B1B68DA6A7B68DB6A69
:1027A0009A4207D20B4B4FF080521A60BFF34F8F03
:1027B000BFF36F8F00BF0837BD46B0BD3453022052
:1027C0005C52022040530220505302203C5302200E
:1027D0006052022004ED00E080B586B002AF224BCB
:1027E0000193002300930023822220492048FFF711
:1027F00090FEF860FB68012B23D14FF0500383F368
:102800001188BFF36F8FBFF34F8FBB60194B4FF031
:10281000FF321A60184B01221A60184B00221A600E
:10282000174B1A68104B1B689A4202D1FEF786FEBE
:1028300004E0134B1B681846FEF7E0FEFFF784FC2C
:102840000DE0FB68B3F1FF3F09D14FF0500383F374
:102850001188BFF36F8FBFF34F8F7B60FEE700BF20
:102860001037BD4680BD00BF5853022050330000D2
:102870004D2C0000545302204053022038530220B4
:102880005C52022080B400AF044B1B680133034A42
:10289000136000BFBD4680BC704700BF5C53022080
:1028A00080B584B000AF0023FB600023BB60434BC6
:1028B0001B68002B09D14FF0500383F31188BFF33D
:1028C0006F8FBFF34F8F3B60FEE7FFF7ADFC3B4BD5
:1028D0001B68013B394A1360384B1B68002B65D1DC
:1028E000374B1B68002B61D032E0364BDB68DB686E
:1028F000FB60FB6818331846FFF7E2FDFB68043302
:102900001846FFF7DDFDFB681846FEF7BBFEFB68C7
:10291000DB6A01229A402C4B1B6813432A4A13603E
:10292000FB68DA6A13469B0013449B00274A1A444B
:10293000FB68043319461046FFF79FFDFB68DA6A0F
:10294000234B1B68DB6A9A4202D3224B01221A6096
:102950001C4B1B68002BC8D1FB68002B01D000F07A
:1029600009FA1D4B1B687B607B68002B10D000F0C0
:1029700049F80346002B02D0164B01221A607B68EF
:10298000013B7B607B68002BF1D1134B00221A6066
:10299000104B1B68002B09D00123BB600F4B4FF07D
:1029A00080521A60BFF34F8FBFF36F8FFFF76AFC3F
:1029B000BB6818461037BD4680BD00BF5C5302207F
:1029C00034530220F45202203C5302206052022071
:1029D0005C520220485302204453022004ED00E0E0
:1029E00080B582B000AFFFF7E1FC00237B60044BB1
:1029F0001B683B603B6818460837BD4680BD00BF7A
:102A00003853022080B586B000AF00237B61504B65
:102A10001B68002B40F08B804E4B1B6801333B61E1
:102A20004C4A3B6913603B69002B1FD14A4B1B6822
:102A30001B68002B09D04FF0500383F31188BFF3BC
:102A40006F8FBFF34F8F3B60FEE7434B1B68FB600C
:102A5000424B1B68404A1360404AFB681360404B7E
:102A60001B6801333E4A136000F084F93D4B1B683C
:102A70003A699A424CD3384B1B681B68002B04D12F
:102A8000384B4FF0FF321A6042E0334B1B68DB6873
:102A9000DB68BB60BB685B687B603A697B689A42B5
:102AA00003D2304A7B68136032E0BB6804331846B7
:102AB000FFF706FDBB689B6A002B04D0BB68183388
:102AC0001846FFF7FDFCBB681846FEF7DBFDBB6848
:102AD000DB6A01229A40244B1B681343224A13608D
:102AE000BB68DA6A13469B0013449B001F4A1A44D2
:102AF000BB68043319461046FFF7BFFCBB68DA6AAF
:102B00001B4B1B68DB6A9A42B5D301237B61B2E79A
:102B1000174B1B68DA6A154913469B0013449B0048
:102B20000B441B68012B07D901237B6104E0114B87
:102B30001B6801330F4A13600F4B1B68002B01D039
:102B400001237B617B6918461837BD4680BD00BFF5
:102B50005C53022038530220EC520220F052022033
:102B60004C530220545302203C5302206052022056
:102B70005C520220445302204853022080B586B0A4
:102B800000AF2C4B1B68002B03D02B4B01221A608B
:102B90004CE0294B00221A60284B1B68FB60FB6845
:102BA000B3FA83F3FB72FB7AC3F11F037B61244901
:102BB0007A6913469B0013449B000B441B68002B4F
:102BC00009D14FF0500383F31188BFF36F8FBFF328
:102BD0004F8F7B60FEE77A6913469B0013449B008E
:102BE000174A13443B613B695B685A683B695A600A
:102BF0003B695A683B6908339A4204D13B695B6878
:102C00005A683B695A603B695B68DB680D4A136030
:102C10000C4B1A680C4B1B689A4202D1FEF78EFCD3
:102C200004E0084B1B681846FEF7E8FC00BF1837A5
:102C3000BD4680BD5C530220485302203C53022015
:102C4000605202205C5202205853022080B582B0AC
:102C500000AF786000F052F8064B1B68012BF9D9E1
:102C6000054B4FF080521A60BFF34F8FBFF36F8F49
:102C7000F0E700BF6052022004ED00E080B582B0B2
:102C800000AF00237B600CE07A6813469B0013447E
:102C90009B00124A13441846FFF7C4FB7B680133BC
:102CA0007B607B68042BEFD90D48FFF7BBFB0D4819
:102CB000FFF7B8FB0C48FFF7B5FB0C48FFF7B2FB7A
:102CC0000B48FFF7AFFB0B4B054A1A600A4B054A4E
:102CD0001A6000BF0837BD4680BD00BF60520220A9
:102CE000C4520220D8520220F4520220085302207B
:102CF00020530220EC520220F052022080B582B014
:102D000000AF19E0FFF790FA0F4BDB68DB687B60E0
:102D10007B6804331846FFF7D3FB0C4B1B68013B61
:102D20000A4A13600A4B1B68013B094A1360FFF70C
:102D3000A9FA786800F00EF8054B1B68002BE1D16A
:102D400000BF0837BD4680BD08530220345302201F
:102D50001C53022080B582B000AF78607B681B6B8B
:102D60001846FFF763F87868FFF760F800BF083788
:102D7000BD4680BD80B483B000AF0C4B1B681B68A0
:102D8000002B04D10A4B4FF0FF321A6008E0074BCA
:102D90001B68DB68DB687B607B685B68044A1360E8
:102DA00000BF0C37BD4680BC704700BFEC5202200C
:102DB0005453022008B50021044600F02BF9044BBF
:102DC0001868C36B03B19847204600F01BFA00BF98
:102DD0005833000070B50D4E0D4D761BB61006D061
:102DE0000024013455F8043B9847A642F9D1094E16
:102DF000094D00F009FA761BB61006D00024013404
:102E000055F8043B9847A642F9D170BD3C04022016
:102E10003C040220440402203C040220032A70B433
:102E200014D940EA0105AD0704460B4622D11D68BE
:102E300026681946AE42204603F1040304F1040457
:102E400018D1043A032A20461946F0D8541E72B10C
:102E500002780B789A4208BF641806D00CE010F88C
:102E6000012F11F8013F9A4206D1A142F7D100206B
:102E700070BC7047541EEBE7D01A70BC704700BF9F
:102E8000844641EA000313F0030349D1403A23D3B7
:102E90000B6803604B6843608B688360CB68C360DA
:102EA0000B6903614B6943618B698361CB69C361C2
:102EB0000B6A03624B6A43628B6A8362CB6AC362AA
:102EC0000B6B03634B6B43638B6B8363CB6BC36392
:102ED00040304031403ADBD230320BD30B680360D4
:102EE0004B6843608B688360CB68C36010301031DF
:102EF000103AF3D20C3205D351F8043B40F8043BAE
:102F0000043AF9D2043208D0D2071CBF11F8013BB1
:102F100000F8013B01D30B8803806046704700BF77
:102F2000082A13D38B07B1D010F00303AED0C3F13E
:102F30000403D21ADB071CBF11F8013B00F8013B68
:102F4000A4D331F8023B20F8023B9FE7043AD9D3DF
:102F5000013A11F8013B00F8013BF9D20B780370FC
:102F60004B7843708B78837060467047F0B4860767
:102F700043D0541E002A3ED0CAB2034602E014F1E8
:102F8000FF3438D303F8012B9D07F8D1032C2BD93C
:102F9000CDB245EA05250F2C45EA054516D9A4F121
:102FA00010073F0903F1200606EB071603F1100294
:102FB00042E9045542E902551032B242F8D104F018
:102FC0000F040137032C03EB07130DD91E462246CD
:102FD000043A032A46F8045BFAD8221F22F00302BF
:102FE0000432134404F003042CB1C9B21C4403F8A6
:102FF000011B9C42FBD1F0BC704714460346C5E759
:10300000024B13B1024800F079B87047000000008D
:10301000093100002DE9F04F0F46B946344B85B019
:103020000390186800F08AF8324B1B68019303F58F
:10303000A4730293019BD3F848613EB34FF001089B
:10304000DDF808A07468651E0FD40027013406EB74
:103050008404B9F1000F20D0D4F800314B451CD0C6
:10306000013D6B1CA4F10404F3D1234B73B1D6E9E9
:103070000032002A34D1002B32D03046CAF800305A
:10308000AFF30080DAF80060002EDBD1184B18682F
:1030900005B0BDE8F04F00F053B873682268013BFB
:1030A000AB420CBF75602760002AD9D0D6F88811D2
:1030B00008FA05F30B42D6F804B008D190477368BC
:1030C0005B45B7D1DAF80030B342C9D0B2E7D6F8E1
:1030D0008C01D4F88010034207D103989047EEE7A3
:1030E000B2461E46002EADD1D0E708469047E6E72F
:1030F000380402205833000000000000002301467D
:103100001A46184600F01EB838B50A4C0A4D641B22
:10311000A4100AD004F18043013B05EB8305013C78
:1031200055F804399847002CF9D1BDE8384000F033
:1031300071B800BF4804022044040220704700BF59
:10314000704700BF2DE9F8432B4D06462868984686
:103150000F469146FFF7F2FF284B1C68D4F8483120
:10316000002B3DD05A681F2A0DDC02F1010C16BB62
:103170000232C3F804C0286843F82270FFF7E0FF6A
:103180000020BDE8F8831E4B7BB34FF4C870AFF34B
:103190000080034648B30020D4F848114FF0010CDA
:1031A000C3E900100246C4F84831C3F88801C3F8E7
:1031B0008C01002EDCD0012103EB8204C4F888903E
:1031C000D3F8880191400843022EC3F88801C4F85F
:1031D0000881CDD1D3F88C010143C3F88C11C7E726
:1031E00004F5A673C4F84831BCE72868FFF7A8FFC8
:1031F0004FF0FF30C5E700BF38040220583300000D
:1032000000000000FEE700BFF8B500BFF8BC08BC36
:103210009E467047F8B500BFF8BC08BC9E46704794
:1032200046697273745F5461736B00005365636F1A
:103230006E645F5461736B0043616C6C65642066FF
:10324000726F6D2046697273742068616E646C657C
:10325000720D0A005461736B2031205969656C64EA
:103260006564000043616C6C65642066726F6D205C
:103270005365636F6E642068616E646C65720D0ADD
:10328000000000005461736B2032205969656C6442
:10329000656400005465726D696E616C0000000029
:1032A0005254540053454747455200000000000067
:1032B0000000000000000000537973566965770034
:1032C00049444C450000000053595354454D56495C
:1032D00045573A20436F756C64206E6F7420726599
:1032E000636F7264207461736B20696E666F726DB8
:1032F0006174696F6E2E204D6178696D756D206EF9
:10330000756D626572206F66207461736B732072D5
:103310006561636865642E00C51A0000351A0000F7
:103320004E3D554152545F44656D6F2C443D4432CF
:103330003532322C4F3D4672656552544F53000072
:10334000492331353D5379735469636B00000000A4
:1033500049444C450000000010000220000000001D
:08336000E0CDFF7F0100000039
:103368000048E80101000000AAAAAAAA000000007B
:1033780000000000FC02022064030220CC030220AB
:103388000000000000000000000000000000000035
:103398000000000000000000000000000000000025
:1033A8000000000000000000000000000000000015
:1033B8000000000000000000000000000000000005
:1033C80000000000000000000000000000000000F5
:1033D80000000000000000000000000000000000E5
:1033E80000000000000000000000000000000000D5
:1033F80000000000000000000000000000000000C5
:1034080000000000000000000000000000000000B4
:1034180000000000000000000100000000000000A3
:103428000E33CDAB34126DE6ECDE05000B00000068
:103438000000000000000000000000000000000084
:103448000000000000000000000000000000000074
:103458000000000000000000000000000000000064
:103468000000000000000000000000000000000054
:103798000000000000000000085402200130000072
:0837A8002501000001010000F1
:04000003000001B543
:00000001FF
